:100000000C942A000C9447000C9447000C94470071
:100010000C9447000C9447000C9447000C94470044
:100020000C9447000C9447000C9447000C94470034
:100030000C9447000C9447000C9447000C94470024
:100040000C9447000C9447000C9447000C94470014
:100050000C94470011241FBECFE5D8E0DEBFCDBF12
:1000600010E0A0E6B0E0E8E5F1E002C005900D92F6
:10007000A036B107D9F710E0A0E6B0E001C01D92AC
:10008000A036B107E1F70E9492000C94AA000C94EC
:1000900000008DEF80B9089594EA96BF06B607FE7A
:1000A000FDCF91B1987F983081F4880F83B984E8AF
:1000B00086BF06B607FEFDCF91B1987F983139F023
:1000C00081E0903429F480E0089581E0089580E093
:1000D000089583B984E886BF06B607FEFDCF91B1C7
:1000E000987F81E0983209F480E0089584EC86BF1F
:1000F00006B607FEFDCF83B1089584E986BF089553
:10010000880F82B984EC86BF089586B7846886BF5D
:1001100006B607FEFDCF91B1987F81E0903609F0D9
:1001200080E008950E944900C0E080E50E944C00F4
:10013000DC2FDF5F8C2F0E9469000E947D008FEF13
:1001400099E6A8E181509040A040E1F700C000008E
:08015000CD2FEBCFF894FFCF97
:00000001FF
