:100000000C942A000C9447000C9447000C94470071
:100010000C9447000C9447000C9447000C94470044
:100020000C9447000C9447000C9447000C94470034
:100030000C9447000C9447000C9447000C94470024
:100040000C9447000C9447000C9447000C94470014
:100050000C94470011241FBECFE5D8E0DEBFCDBF12
:1000600010E0A0E6B0E0ECE1F3E002C005900D92F4
:10007000A036B107D9F710E0A0E6B0E001C01D92AC
:10008000A536B107E1F70E9449000C948C010C944D
:1000900000000E9461000E94C9000E9466000E9448
:1000A000FE008FEF99E6A8E181509040A040E1F773
:1000B00000C0000081E00E94C50080EC0E94C500E5
:1000C000ECCF80E487B987E886B90895369A86B17F
:1000D00086FDFDCF24B135B1932F80E0820F911DB5
:1000E0000895C39A8FEC97E00197F1F700C00000E4
:1000F000C3988FEC97E00197F1F700C000000895D6
:10010000CF93C82F882314F0DF9801C0DF9A8C2F7B
:10011000829586958695837080FD02C0DE9801C029
:10012000DE9A8C2F82958695877080FD02C0DD98BF
:1001300001C0DD9A8C2F82958F7080FD02C0DC9803
:1001400001C0DC9A0E9471008C2F86958695869559
:1001500080FD02C0DF9801C0DF9A8C2F86958695BE
:1001600080FD02C0DE9801C0DE9A8C2F869580FD4E
:1001700002C0DD9801C0DD9AC0FD02C0DC9801C05C
:10018000DC9A0E947100CF910895C1980E9480006E
:1001900008958AB3806F8ABB87B38E6087BB80E285
:1001A00084BBC29882E00E94C50088E20E94C5001C
:1001B00081E00E94C5008CE00E94C50086E00E949C
:1001C000C50080E80E94C5008FE39CE90197F1F724
:1001D00000C000000895C19A0E9480000895CF9346
:1001E000DF93EC018881882331F021960E94EB0097
:1001F00089918823D9F7DF91CF9108958A309105AD
:1002000050F46AE070E00E947801805D80936000A5
:100210001092610068C08436910568F46AE070E06D
:100220000E947801605D60936000805D8093610052
:100230001092620058C023E0883E9207A0F464E662
:1002400070E00E947801605D609360006AE070E099
:100250000E947801605D60936100805D8093620020
:100260001092630040C027E280319207D8F468EE14
:1002700073E00E947801605D6093600064E670E066
:100280000E947801605D609361006AE070E00E9406
:100290007801605D60936200805D809363001092DE
:1002A000640021C060E177E20E947801605D6093A4
:1002B000600068EE73E00E947801605D6093610009
:1002C00064E670E00E947801605D609362006AE01D
:1002D00070E00E947801605D60936300805D8093B0
:1002E00064001092650080E690E00E94EF0008959F
:1002F000AA1BBB1B51E107C0AA1FBB1FA617B7074C
:1003000010F0A61BB70B881F991F5A95A9F7809567
:0C0310009095BC01CD010895F894FFCF3A
:00000001FF
