:100000000C942A000C9447000C9447000C94470071
:100010000C9447000C9447000C9447000C94470044
:100020000C9447000C9447000C9447000C94470034
:100030000C9447000C9447000C9447000C94470024
:100040000C9447000C9447000C9447000C94470014
:100050000C94470011241FBECFE5D8E0DEBFCDBF12
:1000600010E0A0E6B0E0E2E7F3E002C005900D92F8
:10007000A036B107D9F710E0A0E6B0E001C01D92AC
:10008000A536B107E1F70E9493000C94B7010C94D8
:1000900000008DEF80B9089516BE94EA96BF06B6AB
:1000A00007FEFDCF91B1987F983081F4880F83B916
:1000B00084E886BF06B607FEFDCF91B1987F9831E0
:1000C00039F081E0903429F480E0089581E00895CA
:1000D00080E0089583B984E886BF06B607FEFDCFA9
:1000E00091B1987F81E0983209F480E0089584EC22
:1000F00086BF06B607FEFDCF83B1089584E986BFAB
:100100000895880F82B984EC86BF089586B7846805
:1001100086BF06B607FEFDCF91B1987F81E090368D
:1001200009F080E0089580E50E9481000E9483012B
:100130000E9486008823E1F381E00E947F0180EC29
:100140000E947F010E94770090E00E947201F0CF30
:10015000FB018A30910540F46AE070E00E94A3013F
:10016000805D8083118208958436910550F46AE0A1
:1001700070E00E94A301605D6083805D81831282D4
:10018000089523E0883E920780F464E670E00E94C0
:10019000A301605D60836AE070E00E94A301605D7E
:1001A0006183805D82831382089527E28031920704
:1001B000B0F468EE73E00E94A301605D608364E6C2
:1001C00070E00E94A301605D61836AE070E00E94BC
:1001D000A301605D6283805D83831482089560E182
:1001E00077E20E94A301605D608368EE73E00E9485
:1001F000A301605D618364E670E00E94A301605D1D
:1002000062836AE070E00E94A301605D6383805DA9
:10021000848315820895C39A8FEC97E00197F1F7D4
:1002200000C00000C3988FEC97E00197F1F700C081
:1002300000000895CF93C82F882314F0DF9801C0E1
:10024000DF9A8C2F829586958695837080FD02C0FB
:10025000DE9801C0DE9A8C2F82958695877080FD8E
:1002600002C0DD9801C0DD9A8C2F82958F7080FDD1
:1002700002C0DC9801C0DC9A0E940B018C2F86958D
:100280008695869580FD02C0DF9801C0DF9A8C2F8D
:100290008695869580FD02C0DE9801C0DE9A8C2F7F
:1002A000869580FD02C0DD9801C0DD9AC0FD02C0C8
:1002B000DC9801C0DC9A0E940B01CF910895C19A8D
:1002C0000E941A010895CF93DF93EC01888188235F
:1002D00031F021960E945F0189918823D9F7DF913F
:1002E000CF910895CF93DF93C0E6D0E0BE010E9486
:1002F000A800CE010E946301DF91CF910895C198BB
:100300000E941A0108958AB3806F8ABB87B38E60FA
:1003100087BBC29882E00E947F0188E20E947F0131
:1003200081E00E947F018CE00E947F0186E00E94B4
:100330007F0180E80E947F018FE39CE90197F1F73C
:1003400000C000000895AA1BBB1B51E107C0AA1FF3
:10035000BB1FA617B70710F0A61BB70B881F991F66
:100360005A95A9F780959095BC01CD010895F89410
:02037000FFCFBD
:00000001FF
