S01200006B65797061645F6170702E73726563F4
S11300000C942A000C9447000C9447000C9447006D
S11300100C9447000C9447000C9447000C94470040
S11300200C9447000C9447000C9447000C94470030
S11300300C9447000C9447000C9447000C94470020
S11300400C9447000C9447000C9447000C94470010
S11300500C94470011241FBECFE5D8E0DEBFCDBF0E
S113006010E0A0E6B0E0E4EDF3E002C005900D92EC
S1130070A037B107D9F710E0A0E7B0E001C01D92A6
S1130080A537B107E1F70E94BD000C94E8010C9478
S113009000008FE081BB80EF82BB089590B39295FE
S11300A09F7090FD0CC0E82FFF27E7FDF095EE0F41
S11300B0FF1FEE0FFF1FE05AFF4F8081089590B39A
S11300C092959695977090FD0CC0E82FFF27E7FD59
S11300D0F095EE0FFF1FEE0FFF1FE05AFF4F8181D7
S11300E0089590B3929596959695937090FD0CC053
S11300F0E82FFF27E7FDF095EE0FFF1FEE0FFF1F20
S1130100E05AFF4F8281089587990CC0E82FFF279A
S1130110E7FDF095EE0FFF1FEE0FFF1FE05AFF4FB4
S1130120838108958FE19EE40197F1F700C00000F8
S11301308FEF08959098919A929A939A80E00E94F2
S11301404E008F3FC9F4909A9198929A939A81E0C5
S11301500E944E008F3F81F4909A919A9298939ABC
S113016082E00E944E008F3F39F4909A919A929ABD
S1130170939883E00E944E0008950E9449000E94D3
S1130180B4010E949A008F3FE1F381E00E94B00124
S113019084EC0E94B0010E949A000E9490018FEFAB
S11301A091EEA4E081509040A040E1F700C000002F
S11301B0E8CFFB018A30910540F46AE070E00E94C8
S11301C0D401805D8083118208958436910550F4B2
S11301D06AE070E00E94D401605D6083805D818389
S11301E01282089523E0883E920780F464E670E06A
S11301F00E94D401605D60836AE070E00E94D401D3
S1130200605D6183805D82831382089527E280317B
S11302109207B0F468EE73E00E94D401605D6083DD
S113022064E670E00E94D401605D61836AE070E07E
S11302300E94D401605D6283805D8383148208958B
S113024060E177E20E94D401605D608368EE73E050
S11302500E94D401605D618364E670E00E94D40171
S1130260605D62836AE070E00E94D401605D638334
S1130270805D848315820895C39A8FEC97E001977B
S1130280F1F700C00000C3988FEC97E00197F1F7F5
S113029000C000000895CF93C82F882314F0DF987E
S11302A001C0DF9A8C2F829586958695837080FD98
S11302B002C0DE9801C0DE9A8C2F829586958770E5
S11302C080FD02C0DD9801C0DD9A8C2F82958F706D
S11302D080FD02C0DC9801C0DC9A0E943C018C2F96
S11302E086958695869580FD02C0DF9801C0DF9AC9
S11302F08C2F8695869580FD02C0DE9801C0DE9A1B
S11303008C2F869580FD02C0DD9801C0DD9AC0FD6A
S113031002C0DC9801C0DC9A0E943C01CF91089590
S1130320C19A0E944B010895CF93DF93EC01888119
S1130330882331F021960E94900189918823D9F76E
S1130340DF91CF910895CF93DF93C0E7D0E0BE0152
S11303500E94D900CE010E949401DF91CF910895AB
S1130360C1980E944B0108958AB3806F8ABB87B3FA
S11303708E6087BBC29882E00E94B00188E20E942E
S1130380B00181E00E94B0018CE00E94B00186E0DF
S11303900E94B00180E80E94B0018FE39CE90197BC
S11303A0F1F700C000000895AA1BBB1B51E107C070
S11303B0AA1FBB1FA617B70710F0A61BB70B881FF1
S11303C0991F5A95A9F780959095BC01CD01089580
S10703D0F894FFCFCB
S11303D4313233343536373839414243444546475C
S9030000FC
