:100000000C942A000C9447000C9447000C94470071
:100010000C9447000C9447000C9447000C94470044
:100020000C9447000C9447000C9434030C94BD02CC
:100030000C9447000C9447000C9447000C94470024
:100040000C9447000C9447000C9447000C94470014
:100050000C94470011241FBECFE5D8E0DEBFCDBF12
:1000600010E0A0E6B0E0ECE9FBE002C005900D92E4
:10007000A438B107D9F710E0A4E8B0E001C01D92A0
:10008000A939B107E1F70E9458000C94CC050C94F3
:10009000000087E886B980E487B90895369A3699D2
:1000A000FECF24B135B1932F80E0820F911D0895CA
:1000B00080E50E94BB0080E895E20E94AB030E94AD
:1000C0001C020E943C020E946A020E94490080E8D1
:1000D0000E94180280E690E00E94FC01CDE6D0E08C
:1000E0000E94C0008823E1F380EC0E941802CE0138
:1000F0000E94FC0180EC0E9418020E94B10090E076
:100100000E940B02EDCF8DEF80B9089516BE94EAE0
:1001100096BF06B607FEFDCF91B1987F983081F467
:10012000880F83B984E886BF06B607FEFDCF91B17C
:10013000987F983139F081E0903429F480E0089577
:1001400081E0089580E0089583B984E886BF06B60B
:1001500007FEFDCF91B1987F81E0983209F480E0ED
:10016000089584EC86BF06B607FEFDCF83B10895DF
:1001700084E986BF0895880F82B984EC86BF08950C
:1001800086B7846886BF06B607FEFDCF91B1987F1B
:1001900081E0903609F080E008958FE081BB80EF28
:1001A00082BB089590B392959F7090FD0CC0E82F8C
:1001B000FF27E7FDF095EE0FFF1FEE0FFF1FEC5836
:1001C000FF4F8081089590B392959695977090FD1A
:1001D0000CC0E82FFF27E7FDF095EE0FFF1FEE0F95
:1001E000FF1FEC58FF4F8181089590B3929596952B
:1001F0009695937090FD0CC0E82FFF27E7FDF095D2
:10020000EE0FFF1FEE0FFF1FEC58FF4F8281089586
:1002100087990CC0E82FFF27E7FDF095EE0FFF1F31
:10022000EE0FFF1FEC58FF4F838108958FE19EE48E
:100230000197F1F700C000008FEF08959098919A10
:10024000929A939A80E00E94D2008F3FC9F4909ACC
:100250009198929A939A81E00E94D2008F3F81F404
:10026000909A919A9298939A82E00E94D2008F3F3E
:1002700039F4909A919A929A939883E00E94D200CE
:100280000895FB018A30910540F46AE070E00E9415
:100290009605805D8083118208958436910550F41F
:1002A0006AE070E00E949605605D6083805D8183F6
:1002B0001282089523E0883E920780F464E670E09D
:1002C0000E949605605D60836AE070E00E9496057A
:1002D000605D6183805D82831382089527E28031AF
:1002E0009207B0F468EE73E00E949605605D60834B
:1002F00064E670E00E949605605D61836AE070E0EC
:100300000E949605605D6283805D838314820895F8
:1003100060E177E20E949605605D608368EE73E0BD
:100320000E949605605D618364E670E00E94960518
:10033000605D62836AE070E00E949605605D6383A1
:10034000805D848315820895C39A8FEC97E00197AE
:10035000F1F700C00000C3988FEC97E00197F1F728
:1003600000C000000895CF93C82F882314F0DF98B1
:1003700001C0DF9A8C2F829586958695837080FDCB
:1003800002C0DE9801C0DE9A8C2F82958695877018
:1003900080FD02C0DD9801C0DD9A8C2F82958F70A0
:1003A00080FD02C0DC9801C0DC9A0E94A4018C2F61
:1003B00086958695869580FD02C0DF9801C0DF9AFC
:1003C0008C2F8695869580FD02C0DE9801C0DE9A4E
:1003D0008C2F869580FD02C0DD9801C0DD9AC0FD9E
:1003E00002C0DC9801C0DC9A0E94A401CF9108955C
:1003F000C19A0E94B3010895CF93DF93EC018881E5
:10040000882331F021960E94F80189918823D9F739
:10041000DF91CF910895CF93DF93C4E9D0E0BE017F
:100420000E944101CE010E94FC01DF91CF9108950D
:10043000C1980E94B30108958AB3806F8ABB87B3C5
:100440008E6087BBC29882E00E94180288E20E94F8
:10045000180281E00E9418028CE00E94180286E0D7
:100460000E94180280E80E9418028FE39CE901971D
:10047000F1F700C0000008958D9A1DBC1CBC8FB51B
:1004800083688FBD8EB581608EBD0895BC0180E00C
:1004900090E00E94570424E13EEA43E251E40E94C6
:1004A0000B050E942B04DC01CB019BBD8ABD089586
:1004B000BC0180E090E00E94570424E13EEA43E260
:1004C00051E40E940B050E942B04DC01CB0199BD75
:1004D00088BD08958C9A1DBC1CBC8FB583628FBDEE
:1004E0008EB581608EBD089581E883BF81E089BFAC
:1004F0007894089589E883BF82E089BF8AEF8CBF32
:10050000789408958FE985BD8AEF83BD0895209181
:100510008C0030918D0040918E0050918F00609141
:1005200090007091910080919200909193000E94B0
:1005300094042FE632E143E05DE30E940B050E9444
:10054000F603089520918400309185004091860043
:1005500050918700609188007091890080918A0095
:1005600090918B000E94940420E030E040E05DE335
:100570000E940B050E94F60308951F920F920FB67A
:100580000F9211242F933F934F935F936F937F9319
:100590008F939F93AF93EF93FF9350918C00409173
:1005A0008D0030918E0020918F0090919000F091FD
:1005B0009100E0919200A0919300752F7F5F61E020
:1005C000751708F060E0842F50E0640F41E0681771
:1005D00008F040E0542B832F40E0530F31E05817D0
:1005E00008F030E0432B822F30E0420F21E0481723
:1005F00008F020E0322B892F20E0390F91E03817E6
:1006000008F090E0292B8F2F90E02F0FF1E02817B2
:1006100008F0F0E09F2BFE2F80E09E0FE1E09F1797
:1006200008F0E0E08E2B8A0F70938C0060938D00B1
:1006300050938E0040938F00309390002093910050
:100640009093920080939300FF91EF91AF919F91CF
:100650008F917F916F915F914F913F912F910F906B
:100660000FBE0F901F9018951F920F920FB60F920A
:1006700011242F933F934F935F936F937F938F93A7
:100680009F93AF93EF93FF93509184004091850027
:10069000309186002091870090918800F091890028
:1006A000E0918A00A0918B00752F7F5F61E0751744
:1006B00008F060E0842F50E0640F41E0681708F014
:1006C00040E0542B832F40E0530F31E0581708F0DF
:1006D00030E0432B822F30E0420F21E0481708F032
:1006E00020E0322B892F20E0390F91E0381708F0F5
:1006F00090E0292B8F2F90E02F0FF1E0281708F0C2
:10070000F0E09F2BFE2F80E09E0FE1E09F1708F0A6
:10071000E0E08E2B8A0F70938400609385005093E5
:10072000860040938700309388002093890090933F
:100730008A0080938B00FF91EF91AF919F918F91F1
:100740007F916F915F914F913F912F910F900FBECD
:100750000F901F901895A0E0B0E0880F991FAA1F76
:10076000BB1F880F991FAA1FBB1F9C01AD01220F41
:10077000331F441F551F220F331F441F551F60E0B6
:1007800072E18AE790E00E94AA052150304029B921
:1007900030BD88E18AB986E880BD08955D9BFECFB3
:1007A0008CB908950F931F93CF938C01FC01808126
:1007B000882351F0C0E00E94CE03CF5FF801EC0F18
:1007C000F11D80818823B9F7CF911F910F91089572
:1007D0005F9BFECF8CB108958BB1881F8827881F3F
:1007E0000895BEE304D008F490E80895BFE32227FB
:1007F0003327A901EFD058F19F5740F1B91738F1CD
:10080000BFE3B91B9927B8503AF4660F771F881FCA
:10081000991FB395D2F316C0B8504AF0232F342F46
:10082000452F562F672F782F8827B850BAF7B85F13
:1008300049F086957795679557954795379527950C
:10084000BA95B9F70EF4AED088940895889460E014
:1008500070E0CB010895BED088F09F5790F0B92F7B
:100860009927B751A0F0D1F0660F771F881F991F05
:100870001AF0BA95C9F712C0B13081F0C5D0B1E015
:100880000895C2C0672F782F8827B85F39F0B93F25
:10089000CCF3869577956795B395D9F73EF4909507
:1008A0008095709561957F4F8F4F9F4F0895E89485
:1008B00009C097FB3EF490958095709561957F4FA8
:1008C0008F4F9F4F9923A9F0F92F96E9BB27939556
:1008D000F695879577956795B795F111F8CFFAF466
:1008E000BB0F11F460FF1BC06F5F7F4F8F4F9F4F97
:1008F00016C0882311F096E911C0772321F09EE8F5
:10090000872F762F05C0662371F096E8862F70E05A
:1009100060E02AF09A95660F771F881FDAF7880F34
:100920009695879597F90895E894F92F96EBFF230C
:1009300081F0121613061406440B9395F6958795CD
:100940007795679557954040FF23B9F71BC09927C6
:100950000895882351F49850D2F7872B762F652F6E
:10096000542F432F322F20E0B1F312161306140632
:10097000440B88233AF09A95440F551F661F771F42
:10098000881FCAF755234AF4440F551F11F460FF1E
:1009900004C06F5F7F4F8F4F9F4F880F969587954D
:1009A00097F908959095809570956095509540952C
:1009B000309521953F4F4F4F5F4F6F4F7F4F8F4F78
:1009C0009F4F089557FD9058440F551F59F05F3FB2
:1009D00071F04795880F97FB991F61F09F3F79F061
:1009E00087950895121613061406551FF2CF4695E3
:1009F000F1DF08C0161617061806991FF1CF869565
:100A00007105610508940895E894BB276627772748
:100A1000CB0197F908950BD078C069D028F06ED03B
:100A200018F0952309F05AC05FC01124EECFCADF39
:100A3000A0F3959FD1F3950F50E0551F629FF001F1
:100A4000729FBB27F00DB11D639FAA27F00DB11D4A
:100A5000AA1F649F6627B00DA11D661F829F2227D3
:100A6000B00DA11D621F739FB00DA11D621F839F5A
:100A7000A00D611D221F749F3327A00D611D231F30
:100A8000849F600D211D822F762F6A2F11249F577E
:100A900050408AF0E1F088234AF0EE0FFF1FBB1FA1
:100AA000661F771F881F91505040A9F79E3F510540
:100AB00070F014C0AACF5F3FECF3983EDCF386954C
:100AC00077956795B795F795E7959F5FC1F7FE2BEB
:100AD000880F911D9695879597F9089597F99F67C7
:100AE00080E870E060E008959FEF80EC08950024B6
:100AF0000A941616170618060906089500240A9483
:100B000012161306140605060895092E0394000C08
:100B100011F4882352F0BB0F40F4BF2B11F460FF97
:100B200004C06F5F7F4F8F4F9F4F0895AA1BBB1B61
:100B300051E107C0AA1FBB1FA617B70710F0A61BDD
:100B4000B70B881F991F5A95A9F780959095BC01FE
:100B5000CD010895A1E21A2EAA1BBB1BFD010DC0F9
:100B6000AA1FBB1FEE1FFF1FA217B307E407F5075D
:100B700020F0A21BB30BE40BF50B661F771F881F39
:100B8000991F1A9469F760957095809590959B01CF
:0C0B9000AC01BD01CF010895F894FFCF27
:100B9C004144435F76616C7565203D200020202028
:100BAC002020200031323334353637383941424336
:040BBC00444546471F
:00000001FF
