S00C0000554152542E73726563DC
S11300000C942A000C9447000C9447000C9447006D
S11300100C9447000C9447000C9447000C94470040
S11300200C9447000C9447000C9447000C94470030
S11300300C9447000C9447000C9447000C94470020
S11300400C9447000C9447000C9447000C94470010
S11300500C94470011241FBECFE5D8E0DEBFCDBF0E
S113006010E0A0E6B0E0ECECF3E002C005900D92E5
S1130070A036B107D9F710E0A0E6B0E001C01D92A8
S1130080A536B107E1F70E9444010C94E4010C94F5
S11300900000FB018A30910540F46AE070E00E94A0
S11300A0AE01805D8083118208958436910550F4F9
S11300B06AE070E00E94AE01605D6083805D8183D0
S11300C01282089523E0883E920780F464E670E08B
S11300D00E94AE01605D60836AE070E00E94AE0140
S11300E0605D6183805D82831382089527E280319D
S11300F09207B0F468EE73E00E94AE01605D608325
S113010064E670E00E94AE01605D61836AE070E0C5
S11301100E94AE01605D6283805D838314820895D2
S113012060E177E20E94AE01605D608368EE73E097
S11301300E94AE01605D618364E670E00E94AE01DE
S1130140605D62836AE070E00E94AE01605D63837B
S1130150805D848315820895C39A8FEC97E001979C
S1130160F1F700C00000C3988FEC97E00197F1F716
S113017000C000000895CF93C82F882314F0DF989F
S113018001C0DF9A8C2F829586958695837080FDB9
S113019002C0DE9801C0DE9A8C2F82958695877006
S11301A080FD02C0DD9801C0DD9A8C2F82958F708E
S11301B080FD02C0DC9801C0DC9A0E94AC008C2F48
S11301C086958695869580FD02C0DF9801C0DF9AEA
S11301D08C2F8695869580FD02C0DE9801C0DE9A3C
S11301E08C2F869580FD02C0DD9801C0DD9AC0FD8C
S11301F002C0DC9801C0DC9A0E94AC00CF91089543
S1130200C19A0E94BB000895CF93DF93EC018881CB
S1130210882331F021960E94000189918823D9F71F
S1130220DF91CF910895CF93DF93C0E6D0E0BE0174
S11302300E944900CE010E940401DF91CF910895EC
S1130240C1980E94BB0008958AB3806F8ABB87B3AC
S11302508E6087BBC29882E00E94200188E20E94DF
S1130260200181E00E9420018CE00E94200186E0B0
S11302700E94200180E80E9420018FE39CE90197FD
S1130280F1F700C0000008950E94240180E895E27F
S11302900E946801C0E08C2F0E948B010E94A9017A
S11302A0882359F081E00E94200180EC0E94200103
S11302B00E94A50190E00E9413018FEF99E6A8E146
S11302C081509040A040E1F700C00000CF5FE3CF31
S11302D0A0E0B0E0880F991FAA1FBB1F880F991FC9
S11302E0AA1FBB1F9C01AD01220F331F441F551FC2
S11302F0220F331F441F551F60E072E18AE790E02C
S11303000E94C2012150304029B930BD88E18AB928
S113031086E880BD08955D9BFECF8CB908950F9348
S11303201F93CF938C01FC018081882351F0C0E09E
S11303300E948B01CF5FF801EC0FF11D80818823AF
S1130340B9F7CF911F910F9108955F9BFECF8CB1A8
S113035008958BB1881F8827881F0895AA1BBB1B8B
S113036051E107C0AA1FBB1FA617B70710F0A61BB1
S1130370B70B881F991F5A95A9F780959095BC01D2
S1130380CD010895A1E21A2EAA1BBB1BFD010DC0CD
S1130390AA1FBB1FEE1FFF1FA217B307E407F50731
S11303A020F0A21BB30BE40BF50B661F771F881F0D
S11303B0991F1A9469F760957095809590959B01A3
S10F03C0AC01BD01CF010895F894FFCFFB
S9030000FC
