:100000000C942A000C9447000C9447000C94470071
:100010000C9447000C9447000C9447000C94470044
:100020000C9447000C9447000C9441010C94CA00B6
:100030000C9447000C9447000C9447000C94470024
:100040000C9447000C9447000C9447000C94470014
:100050000C94470011241FBECFE5D8E0DEBFCDBF12
:1000600010E0A0E6B0E0ECEEF5E002C005900D92E5
:10007000A036B107D9F710E0A0E6B0E001C01D92AC
:10008000A037B107E1F70E9449000C94F4020C94E8
:1000900000008F9A8E9A0E9487000E94AF009923D9
:1000A000E1F49923D1F78823C1F48823B1F77723AA
:1000B000A1F4772391F7662381F4662371F7552322
:1000C00061F4552351F7442341F4442331F734308C
:1000D00020F4333011F7293E00F382B3805882BBFD
:1000E0001092600010926100109262001092630002
:1000F00010926400109265001092660010926700E2
:10010000CCCF81E883BF81E089BF7894089589E8E6
:1001100083BF82E089BF8AEF8CBF789408958FE90E
:1001200085BD8AEF83BD08952091680030916900F4
:1001300040916A0050916B0060916C0070916D006D
:1001400080916E0090916F000E94F2012FE632E1E3
:1001500043E05DE30E9462020E94BD010895209188
:1001600060003091610040916200509163006091A5
:1001700064007091650080916600909167000E9414
:10018000F20120E030E040E05DE30E9462020E9464
:10019000BD0108951F920F920FB60F9211242F9355
:1001A0003F934F935F936F937F938F939F93AF93FF
:1001B000EF93FF93509168004091690030916A007D
:1001C00020916B0090916C00F0916D00E0916E00B9
:1001D000A0916F00752F7F5F61E0751708F060E0F8
:1001E000842F50E0640F41E0681708F040E0542B82
:1001F000832F40E0530F31E0581708F030E0432BD5
:10020000822F30E0420F21E0481708F020E0322B27
:10021000892F20E0390F91E0381708F090E0292B62
:100220008F2F90E02F0FF1E0281708F0F0E09F2BC0
:10023000FE2F80E09E0FE1E09F1708F0E0E08E2B9C
:100240008A0F709368006093690050936A0040932E
:100250006B0030936C0020936D0090936E00809340
:100260006F00FF91EF91AF919F918F917F916F916F
:100270005F914F913F912F910F900FBE0F901F9064
:1002800018951F920F920FB60F9211242F933F9340
:100290004F935F936F937F938F939F93AF93EF935E
:1002A000FF93509160004091610030916200209175
:1002B000630090916400F0916500E0916600A09168
:1002C0006700752F7F5F61E0751708F060E0842F8D
:1002D00050E0640F41E0681708F040E0542B832F92
:1002E00040E0530F31E0581708F030E0432B822FE5
:1002F00030E0420F21E0481708F020E0322B892F30
:1003000020E0390F91E0381708F090E0292B8F2F6B
:1003100090E02F0FF1E0281708F0F0E09F2BFE2F60
:1003200080E09E0FE1E09F1708F0E0E08E2B8A0F3F
:10033000709360006093610050936200409363008B
:10034000309364002093650090936600809367006B
:10035000FF91EF91AF919F918F917F916F915F91FD
:100360004F913F912F910F900FBE0F901F901895B6
:10037000BEE304D008F490E80895BFE322273327B2
:10038000A90186D058F19F5740F1B91738F1BFE362
:10039000B91B9927B8503AF4660F771F881F991F29
:1003A000B395D2F316C0B8504AF0232F342F452FFF
:1003B000562F672F782F8827B850BAF7B85F49F0C3
:1003C0008695779567955795479537952795BA956B
:1003D000B9F70EF445D088940895889460E070E0F1
:1003E000CB010895E894F92F96EBFF2381F01216C4
:1003F00013061406440B9395F695879577956795A4
:1004000057954040FF23B9F71BC0992708958823CB
:1004100051F49850D2F7872B762F652F542F432F06
:10042000322F20E0B1F3121613061406440B882372
:100430003AF09A95440F551F661F771F881FCAF719
:1004400055234AF4440F551F11F460FF04C06F5F39
:100450007F4F8F4F9F4F880F9695879597F90895F7
:100460009095809570956095509540953095219523
:100470003F4F4F4F5F4F6F4F7F4F8F4F9F4F0895AD
:1004800057FD9058440F551F59F05F3F71F0479545
:10049000880F97FB991F61F09F3F79F0879508952A
:1004A000121613061406551FF2CF4695F1DF08C049
:1004B000161617061806991FF1CF86957105610566
:1004C000089408950BD078C069D028F06ED018F049
:1004D000952309F05AC05FC0112480C0D1DFA0F37A
:1004E000959FD1F3950F50E0551F629FF001729FC9
:1004F000BB27F00DB11D639FAA27F00DB11DAA1FE8
:10050000649F6627B00DA11D661F829F2227B00D34
:10051000A11D621F739FB00DA11D621F839FA00DBF
:10052000611D221F749F3327A00D611D231F849F0F
:10053000600D211D822F762F6A2F11249F57504066
:100540008AF0E1F088234AF0EE0FFF1FBB1F661F01
:10055000771F881F91505040A9F79E3F510570F0BA
:1005600014C03CC05F3FECF3983EDCF38695779572
:100570006795B795F795E7959F5FC1F7FE2B880FB5
:10058000911D9695879597F9089597F99F6780E84B
:1005900070E060E008959FEF80EC089500240A94D5
:1005A0001616170618060906089500240A9412164E
:1005B0001306140605060895092E0394000C11F481
:1005C000882352F0BB0F40F4BF2B11F460FF04C02E
:1005D0006F5F7F4F8F4F9F4F0895E894BB2766272B
:0C05E0007727CB0197F90895F894FFCF1E
:00000001FF
