:100000000C942A000C9447000C9447000C94470071
:100010000C9447000C9447000C9447000C94470044
:100020000C9447000C9447000C9447000C94470034
:100030000C9447000C9447000C9447000C94470024
:100040000C9447000C9447000C9447000C94470014
:100050000C94470011241FBECFE5D8E0DEBFCDBF12
:1000600010E0A0E6B0E0ECE7F1E002C005900D92F0
:10007000A036B107D9F710E0A0E6B0E001C01D92AC
:10008000A036B107E1F70E949F000C94BC000C94CD
:10009000000084B38C6F84BB85B385BB0895282F83
:1000A0006AE00E94B000AA9AAB9890FD02C0AC989A
:1000B00001C0AC9A892F869580FD02C0AD9801C021
:1000C000AD9A892F8695869580FD02C0AE9801C0B5
:1000D000AE9A96959695969511F4AF9801C0AF9A01
:1000E0008FEC97E00197F1F700C00000822F6AE0E3
:1000F0000E94B000AA98AB9A80FD02C0AC9801C0E3
:10010000AC9A982F969590FD02C0AD9801C0AD9A1B
:10011000982F9695969590FD02C0AE9801C0AE9A24
:1001200086958695869580FD02C0AF9801C0AF9AEE
:100130008FEC97E00197F1F700C0000008950E944E
:10014000490010E00F2EF4EFEF2EF1E0FF2EF02D1E
:10015000E701812F0E944F002197D9F71F5FF8CF49
:10016000991B79E004C0991F961708F0961B881F09
:0C0170007A95C9F780950895F894FFCFA8
:00000001FF
